:020000040800F2
:10000000B80600204D0200087F1200082F110008DA
:100010007D12000843040008871400080000000057
:100020000000000000000000000000008312000833
:100030004504000800000000811200088512000835
:1000400067020008670200086702000867020008EC
:1000500067020008670200086702000867020008DC
:1000600047040008670200086702000867020008EA
:1000700067020008670200086702000867020008BC
:1000800067020008670200086702000867020008AC
:10009000670200086702000867020008670200089C
:1000A00067020008391300086702000867020008A9
:1000B000670200086702000867020008670200087C
:1000C000670200086702000867020008670200086C
:1000D000670200086702000867020008670200085C
:1000E000670200086702000867020008670200084C
:1000F000670200086702000867020008670200083C
:10010000670200086702000867020008670200082B
:10011000670200086702000867020008670200081B
:10012000670200086702000867020008670200080B
:1001300067020008670200086702000867020008FB
:1001400067020008670200086702000867020008EB
:1001500067020008670200086702000867020008DB
:1001600067020008670200086702000867020008CB
:10017000670200086702000867020008000000002C
:1001800067020008670200086702000867020008AB
:10019000670200086702000867020008670200089B
:1001A00000000000000000006702000800F002F8F4
:1001B00000F03CF80AA090E8000C82448344AAF1C5
:1001C0000107DA4501D100F031F8AFF2090EBAE8C3
:1001D0000F0013F0010F18BFFB1A43F0010318477B
:1001E0000413000024130000103A24BF78C878C11B
:1001F000FAD8520724BF30C830C144BF04680C602D
:10020000704700000023002400250026103A28BF74
:1002100078C1FBD8520728BF30C148BF0B60704778
:100220001FB501F051F91FBD10B510BD00F0CFF89A
:100230001146FFF7F5FF01F037F900F0EDF803B4D0
:10024000FFF7F2FF03BC00F0F5F800000948804713
:1002500009480047FEE7FEE7FEE7FEE7FEE7FEE7A8
:10026000FEE7FEE7FEE7FEE704480549054A064BC0
:100270007047000029130008AD010008B8000020F5
:10028000B8060020B8020020B802002053EA020C91
:1002900000F069802DE9F04B4FF00006002B1FBFE6
:1002A000B3FA83F503FA05F424FA05F65E4012BFAB
:1002B0001643B2FA82F502FA05F4C5F120051EBF15
:1002C00022FA05FC44EA0C04203556EA044C4FEAB5
:1002D000144418BF641C4FF000084FF0000990420E
:1002E00071EB030C39D3002919BFB1FA81F701FA78
:1002F00007F6B0FA80F700FA07F6C7F120071EBF2D
:1003000020FA07FC46EA0C062037B6FBF4FCA7EB04
:100310000507103F07F01F0BCBF120060CFA0BFB73
:100320002CFA06F644BFB3460026202FA4BF5E4633
:100330004FF0000B5BEA060C08BF4FF0010B19EB06
:100340000B09ABFB027C48EB0608C01B06FB02CC8A
:100350000BFB03CC71EB0C01C1E70B460246414697
:100360004846BDE8F08B13B54FF000004FF0000198
:10037000AFF30080BDE81C4070474FF0000200B5AD
:10038000134694469646203922BFA0E80C50A0E8B8
:100390000C50B1F12001BFF4F7AF090728BFA0E866
:1003A0000C5048BF0CC05DF804EB890028BF40F832
:1003B000042B08BF704748BF20F8022B11F0804F74
:1003C00018BF00F8012B704770477047704775469B
:1003D00000F02CF8AE4605006946534620F00700B1
:1003E000854618B020B5FFF73FFFBDE820404FF02D
:1003F00000064FF000074FF000084FF0000B21F00F
:100400000701AC46ACE8C009ACE8C009ACE8C009DB
:10041000ACE8C0098D46704710B50446AFF30080C4
:100420002046BDE81040FFF70ABF000000487047B3
:100430005800002001491820ABBEFEE7260002004C
:100440007047FEE77047042000F00CB872B6FEE774
:10045000042803D10103024800F02FB970470000BF
:1004600000140240044910B50A68024202D0086034
:10047000FFF7EEFF10BD0000143C01402DE9F84FDE
:10048000DFF8F8A10022012403254FF00F090AF13B
:10049000040BAAF1040E00BF0B6804FA02F6334005
:1004A000B34270D10F7907F00307012F01D0022F5B
:1004B00016D187684FEA420805FA08FC27EA0C07BC
:1004C000D1F80CC00CFA08FC4CEA070CC0F808C0C4
:1004D0004768B7430E79C6F3001696403E43466020
:1004E0000E79F643B6070AD0C7684FEA420C05FA00
:1004F0000CF6B7438E6806FA0CF63E43C6600E79DA
:1005000006F00306022E10D1D60800EB8608D8F8B4
:10051000206057074FEAD76C09FA0CF7BE430F6902
:1005200007FA0CF73743C8F8207006684FEA420C08
:1005300005FA0CF7BE430F7907F0030707FA0CF72B
:10054000374307604E6816F4403F1CD04C4E376866
:1005500047F480473760366822F0030706F4804688
:100560000096484E07EB060CDCF8086897073F0F2B
:1005700009FA07F826EA0806DFF80C81404503D19E
:100580004FF0000841E072E0DFF80081404502D101
:100590004FF0010839E0DFF8F880404502D14FF014
:1005A000020832E0DFF8EC80404502D14FF003084A
:1005B0002BE0DFF8E480404502D14FF0040824E04E
:1005C000DFF8D880404502D14FF005081DE0DFF884
:1005D000D080404502D14FF0060816E0DFF8C48015
:1005E000404502D14FF007080FE0DFF8BC804045DE
:1005F00002D14FF0080808E0DFF8B080404502D192
:100600004FF0090801E04FF00A0808FA07F848EA35
:100610000608CCF80888DAF800605746D1F804C01C
:100620009E435FEACC2C00D51E433E60DBF80060A1
:100630005F46D1F804C09E435FEA8C2C00D51E4370
:100640003E60DEF800607746D1F804C09E435FEA62
:100650008C3C00D51E433E60084F083F3E68D1F8F1
:1006600004C09E435FEACC3C00D51E433E60521C52
:10067000102AFFF411AFBDE8F88F0000083C0140DC
:1006800044380240003001400000024000040240B3
:1006900000080240000C024000100240001402401A
:1006A00000180240001C02400020024000240240CA
:1006B0000069084000D001207047426921EA020326
:1006C0000A4043EA0241816170470AB18161704783
:1006D0000904FBE701488068704700000000002023
:1006E0000248816802781144816070470000002050
:1006F0000B4810B5016841F400710160016841F4D4
:1007000080610160016841F480710160032000F0A4
:100710006FF80F2000F006F800F024F8002010BD5C
:10072000003C024070B50D4D04464FF47A712878B4
:10073000B1FBF0F00A490968B1FBF0F000F024FBCE
:1007400048B9102C07D200222146501E00F030F884
:1007500000206C6070BD012070BD00000000002012
:100760000C0000200A4808B5016841F4804101608E
:10077000006800F4804000900548001F016841F0C7
:1007800080510160006800F08050009008BD0000BA
:1007900044380240002809DB00F01F02012191408B
:1007A0004009800000F1E020C0F80011704700000F
:1007B000F0B40E4B1B680C46C3F30223C3F10705CC
:1007C000042D00D90425191D072901D2002300E0BA
:1007D000DB1E012606FA05F1491E214099409E4084
:1007E000761E16403143F0BC00F04EBE0CED00E02A
:1007F000064900F0070208684FF6FF03184040EA78
:100800000220034A10430860704700000CED00E02E
:100810000000FA052DE9F8431748016841F08051BE
:1008200001600068154F00F08050012600903E6482
:10083000FFF750FF05464FF47A78114C05E000BFF2
:10084000FFF748FF401B40450DD86068C003F7D54F
:100850007E64FFF73FFF0546464607E0FFF73AFF95
:10086000401BB04202D90320BDE8F88360688003D2
:10087000F4D50020F8E700004038024000000E42A6
:10088000007000402DE9F0470E46050065D0DFF806
:100890001481D8F80000F7B200F00F00B04207D280
:1008A00088F80070D8F8000000F00F00B04254D172
:1008B00028683D4C810712D5400703D5206840F4D5
:1008C000E05020602878000703D5206840F460409D
:1008D00020602068A96820F0F00008432060287894
:1008E000C0072DD0304968680839012812D0022885
:1008F00013D0032811D00968890700292DDA21684F
:1009000021F0030101432160FFF7E4FE814641F23B
:10091000883A0EE009688903EFE709688901ECE786
:10092000FFF7D8FEA0EB0901514502D90320BDE82D
:10093000F0872068696800F00C00B0EB810FEFD100
:10094000D8F80010404601F00F01B14207D90770F6
:10095000006800F00F00B04201D00120E7E72878DE
:10096000400705D52068E96820F4E050084320607E
:100970002878000706D52068296920F4604040EAFD
:10098000C100206000F018F82168084AC1F3031183
:10099000515CC8400649086006480068FFF7C2FE7F
:1009A0000020C4E7003C024008380240D21400088E
:1009B0000C00002004000020154810B5006810F05D
:1009C0000C02144813D01449042A0FD0082A0ED15F
:1009D0000F4C241F2268236802F03F025B0207D5F8
:1009E0002068C0F38810A0FB010106E0084610BD96
:1009F0002168C1F38811A1FB00010023FFF746FC29
:100A00002168C1F30141491C4900B0FBF1F010BD60
:100A1000083802400024F400001BB7002DE9F84F0D
:100A200004006ED02078DFF84C93C007A9F10405CC
:100A30004AD009F104000168C1F38101012908D0FD
:100A40000068C0F3810002280AD1D9F800004002F2
:100A500006D52868800337D560680028E1D033E0E8
:100A60006068B0F5803F10D0B0F5A02F286810D096
:100A700020F480302860286820F480202860606896
:100A8000A8B1FFF727FE06460DE0286840F4803045
:100A9000F4E740F480202860F7E700BFFFF71AFE74
:100AA000801B642873D828688003F7D50CE0FFF713
:100AB00011FE064605E000BFFFF70CFE801B642810
:100AC000F0D828688003F7D42078DFF8AC8280075C
:100AD0004FF0000A3ED5A748001D016811F00C0F29
:100AE00008D00068C0F3810002280BD1D9F80000BB
:100AF000400207D42868800716D5E068012800D195
:100B000012E033E1E068B8B10120C8F80000FFF757
:100B1000E1FD064605E000BFFFF7DCFD801B022873
:100B2000C0D828688007F7D52868216920F0F80028
:100B300040EAC10028600DE0C8F800A0FFF7CAFD38
:100B4000064604E0FFF7C6FD801B02281FD8286870
:100B50008007F7D42078000722D5864F874861693F
:100B6000703771B101210160FFF7B4FD064604E062
:100B7000FFF7B0FD801B022809D838688007F7D539
:100B80000EE0C0F800A0FFF7A5FD064605E082E0F4
:100B9000FFF7A0FD801B02287DD838688007F7D4B6
:100BA0002078400768D5DFF8CCB100270BF13C0B6B
:100BB000DBF80000C0000BD4DBF8001041F08051DE
:100BC000CBF80010DBF80000012700F08050009007
:100BD0006B4E3068C00510D4306840F480703060CF
:100BE000FFF778FD009005E0FFF774FD0099401ACB
:100BF000022850D83068C005F6D55E4EA0686C3625
:100C000001280FD00528306810D020F00100306096
:100C1000306820F004003060A068B8B1FFF75AFDDA
:100C200000900FE0306840F00100F4E740F004006D
:100C30003060F7E7FFF74EFD0099411A41F2883026
:100C4000814266D830688007F4D50EE0FFF742FD98
:100C5000009007E0FFF73EFD0099411A41F288300D
:100C6000814256D830688007F4D42FB1DBF80010E9
:100C700021F08051CBF80010A069C8B33D49091D8F
:100C80000968C1F3810102294AD00228504607D0E1
:100C9000C8F8600000E03CE0FFF71CFD04463BE0C4
:100CA0004746C8F86000FFF715FD064605E000BF9F
:100CB000FFF710FD801B02282BD828688001F7D48D
:100CC000D4E907010843A16A2E4A490802EB014111
:100CD000626A41EA8211084394F82C1040EA0161EB
:100CE000C9F8001001203866FFF7F4FC044606E05E
:100CF0003EE000BFFFF7EEFC001B022809D8286881
:100D00008001F7D534E000BFFFF7E4FC001B0228A8
:100D100002D90320BDE8F88F28688001F4D427E0C9
:100D20000128F7D0D9F80000E26900F4800191426F
:100D30001CD1226A00F03F01914217D147F6C071E1
:100D4000626A0140B1EB821F10D1A26A4FF0FF33FB
:100D500000F4403103EB5202B1EB024F06D194F89C
:100D60002C1000F07060B0EB016F01D00120D1E7D2
:100D70000020CFE70438024000004742800E47427F
:100D8000007000400000FFFF10B5401EB0F1807FF2
:100D900001D3012010BD4FF0E02460610F216017E6
:100DA00000F072FB0020A06107202061002010BD30
:100DB0007047704770B590F83C20012A32D001246A
:100DC00080F83C40022280F83D2003685A689D6804
:100DD00022F070060A6832435A60134B02689A4246
:100DE00014D0B2F1804F11D0104B9A420ED0104B5C
:100DF0009A420BD00F4B9A4208D00F4B9A4205D023
:100E00000E4B9A4202D00E4B9A4204D1496825F00B
:100E100080031943916080F83D40002180F83C1028
:100E2000084670BD022070BD000001400004004073
:100E300000080040000C0040000401400040014058
:100E40000018004010B5040003D094F83D0010B124
:100E500007E0012010BD002084F83C00204600F08F
:100E60001FF8022084F83D00211D206800F06AFA76
:100E7000012084F8460084F83E0084F83F0084F89E
:100E8000400084F8410084F8420084F8430084F86C
:100E9000440084F8450084F83D00002010BD0000A7
:100EA00008B500680B49884212D10B48016841F02F
:100EB000010101600068002200F00100009011466D
:100EC0001920FFF775FCBDE808401920FFF762BC48
:100ED00008BD0000000001404438024070B50446DF
:100EE00090F83C000025012817D0012684F83C60CA
:100EF000022084F83D002068826822F0770222F404
:100F00007F4282600868502838D00DDC20284FD0FE
:100F100005DC90B3102811D14AE0022070BD3028C2
:100F200046D040280AD13BE060282FD070280DD051
:100F3000B0F5805F03D0B0F5005F12D0012584F8D2
:100F40003D60002084F83C00284670BDCB68D1E9A4
:100F50000121206800F062FA2068816841F0770181
:100F600009E0CB68D1E90121206800F057FA206838
:100F7000816841F480418160E1E719E0CA6849680D
:100F8000206800F05DFA5021206806E0CA684968D0
:100F9000206800F066FA6021206800F049FACEE788
:100FA000CA684968206800F04BFA40212068F4E7DD
:100FB000226801461046F0E770472DE9F0410446EB
:100FC0000068C66805694FF00007A90713D5B10787
:100FD00011D5F91E01610120207720688069800702
:100FE000204602D0FFF7E8FF04E000F07EF820463C
:100FF00000F07CF82777680716D5700714D52168AC
:101000006FF004000861022020772068806910F4E6
:10101000407F204602D0FFF7CFFF04E000F065F8E4
:10102000204600F063F82777280715D5300713D539
:1010300021686FF008000861042020772068C069EB
:101040008007204602D0FFF7B7FF04E000F04DF81C
:10105000204600F04BF82777E80616D5F00614D5A1
:1010600021686FF010000861082020772068C069AF
:1010700010F4407F204602D0FFF79EFF04E000F00E
:1010800034F8204600F032F82777E80708D0F00758
:1010900006D021686FF001000861204600F028F8B2
:1010A000280608D5300606D521686FF08000086153
:1010B0002046FFF77DFE680608D5700606D5216834
:1010C0006FF040000861204600F030F8A8060AD50D
:1010D000B00608D521686FF0200008612046BDE801
:1010E000F041FFF766BEBDE8F08170477047000031
:1010F00070B50B49884212D10A4D4FF48044214605
:101100002846FFF7DAFA21462846FFF7D1FA0128E8
:1011100005D1BDE87040C1020348FFF7CEBA70BDEB
:101120001000002000140240001002407047FEE74B
:101130002DE9F04186B014216846FFF71EF93048CA
:101140000024016841F001010160016801F0010122
:101150000591016841F080010160016801F08001A2
:101160000591016841F002010160016801F002018E
:101170000591016841F010010160016801F0100162
:101180000591016841F02001016000681D4F00F0E9
:1011900020004FF400650590002229463846FFF7ED
:1011A00094FADFF86480EE00002231464046FFF7F3
:1011B0008CFA042000904FF48810019002200290D5
:1011C00069461248FFF75AF900950125CDE9015407
:1011D000694638460394FFF751F90096CDE901546A
:1011E000694640460394FFF749F90022114608205A
:1011F000FFF7DEFA0820FFF7CDFA06B0BDE8F08170
:101200003038024000100240001402400004024046
:1012100010B586B0002418480094019402940394F9
:10122000049414490594016041F28831C0E9011425
:1012300042F22831C0E903148021C0E90541FFF7DB
:1012400001FE08B1FFF702F94FF4805000906946A3
:101250000948FFF743FE08B1FFF7F8F8049404A922
:1012600005480594FFF7A6FD002801D0FFF7EEF82A
:1012700006B010BD0000014010000020FEE7FEE7B0
:1012800070477047FFF72CBA30B593B030216846ED
:10129000FFF773F814210CA8FFF76FF8204800251A
:1012A000016841F080510160006800F080501190A9
:1012B0001C48016821F4404141F48041016000680C
:1012C000022400F44040119001200090000401909D
:1012D0008001CDE906400C200890B420CDE9090436
:1012E00004200B906846FFF799FB08B172B6FEE741
:1012F000FFF790FA08B172B6FEE70CA90F2081E85B
:1013000031004FF48050CDE90F0502210CA8FFF702
:10131000B9FA002801D072B6FEE713B030BD000064
:1013200040380240007000400248016841F47001FA
:101330000160704788ED00E00148FFF73EBE000005
:1013400010000020F0B50268294C2A4D2A4E2B4F80
:101350002B4B4FF0804CA04209D0604507D0A842EB
:1013600005D0B04203D0B84201D0984204D122F057
:10137000700E4A6842EA0E02A0421BD0604519D0A6
:10138000A84217D0B04215D0B84213D0984211D01D
:101390001C4DA8420ED01C4DA8420BD01B4DA8429C
:1013A00008D01B4DA84205D01A4DA84202D01A4DB4
:1013B000A84203D122F44075CA682A434D6922F03D
:1013C00080022A4302608A68C2620A688262A0427E
:1013D00001D0984201D1096901630121416101698C
:1013E000C90703D0016921F001010161F0BD0000CE
:1013F000000001400004004000080040000C0040D4
:101400000004014000400140004401400048014008
:1014100000180040001C00400020004010B5846807
:1014200042EA032224F47F440A432243826010BD2F
:10143000826822F070020A4342F00701816070471F
:1014400010B5036A046A24F001040462846924F07C
:10145000F00444EA021423F00A020A43846102629F
:1014600010BD10B5036A046A24F010040462846994
:1014700023F0A00324F4704444EA023243EA011149
:101480008261016210BDFEE70907090E002804DB36
:1014900000F1E02080F80014704700F00F0000F128
:1014A000E02080F8141D7047FFF722F9FFF7ECFEEB
:1014B000FFF73EFEFFF7ACFE0122D1020148FFF725
:1014C00004F9FEE7001002404FF04070E1EE100A10
:1014D000704700000000000000000102030406073E
:1014E000080900000415000800000020100000009A
:1014F000E80100081415000810000020A8060000EC
:1015000004020008010000001000000000000000BC
:041510000024F400BF
:04000005080001AD41
:00000001FF
